:020000040801F1
:1000000098FE0120ED030108F5030108456D010884
:10001000F9030108FB030108FD03010800000000CB
:10002000000000000000000000000000FF030108C5
:10003000010401080000000075030108190C020802
:10004000070401080704010807040108C9E50108BD
:100050000704010807040108070401080704010850
:100060000704010807040108070401080704010840
:100070000704010807040108CD4D0108054E0108D9
:100080000704010807040108070401080704010820
:100090000704010807040108070401080704010810
:1000A00007040108790E020807040108AD0D0208D3
:1000B000070401085D0F0208011002080704010887
:1000C00007040108070401080704010807040108E0
:1000D000070401089522020807040108A522020866
:1000E0000704010825E001080704010807040108C6
:1000F00007040108070401080704010807040108B0
:100100000704010845F101083D1002080704010831
:100110000704010807040108D5100208F9100208B5
:10012000070401083D4E01080704010807040108FF
:10013000070401080D550108070401080704010818
:10014000070401080704010807040108F5D50108A0
:10015000070401080704010807040108070401084F
:10016000070401080704010807040108070401083F
:100170000704010807040108094D010807040108E4
:10018000070401080704010800F002F800F0B2F8C3
:100190000AA090E8000C82448344AAF10107DA45E2
:1001A00001D100F0A7F8AFF2090EBAE80F0013F082
:1001B000010F18BFFB1A43F001031847B41C0600D7
:1001C000D41C06000A444FF0000C10F8013B13F059
:1001D000070408BF10F8014B1D1108BF10F8015BA0
:1001E000641E05D010F8016B641E01F8016BF9D193
:1001F00013F0080F1EBF10F8014BAD1C0C1B09D1EA
:100200006D1E58BF01F801CBFAD505E014F8016B5B
:1002100001F8016B6D1EF9D59142D6D370470000ED
:100220000023002400250026103A28BF78C1FBD8FF
:10023000520728BF30C148BF0B6070476E2902F0DB
:10024000EB83702902F07580662904F045A66529C4
:1002500004F042A6672904F03FA66129AFF30080AD
:1002600003681B0A28BF41F08001692901F0E68775
:10027000642901F0E387752901F0E0876F2902F016
:10028000F186782902F04180E92902F08B86E42981
:1002900002F08886F52902F08586EF2902F0EE86C5
:1002A000F82902F040800368DB0928BF41F0800193
:1002B000632902F0FA85732902F0FF85E32902F031
:1002C000B387F32902F0B887002070471FB544F0C8
:1002D000F0FD02F023FB04000020002143F0FAFEB1
:1002E000401C60600020002143F00AFFE0601FBD59
:1002F00010B510BD03F086F81146FFF7E7FF2CF0AC
:100300005DFA03F0B2F803B4FFF7F2FF03BC18F094
:100310008CFA000030BF72B6704762B6704780F347
:1003200008887047EFF3108072B6704780F310882A
:100330007047264C4FF6FF7525604FF0000484F39C
:100340000988234C4FF001052570224C4FF0805551
:10035000256062B6FEE730B41E4C4FF08055256034
:1003600030BC704730B41B4C4FF08055256030BC1A
:10037000704700BF72B6EFF3098050B11EF0100F46
:1003800008BF20ED108A203880E8F00F1249096874
:10039000086000B5114880475DF804EB104811492A
:1003A0000A7802700C4810490A680260106890E8E8
:1003B000F00F20301EF0100F08BFB0EC108A80F351
:1003C00009884EF0040E62B6704700BF22ED00E0CF
:1003D0001F05002004ED00E038050020D9CF0108FA
:1003E0001C0500201D05002040050020094880470D
:1003F00009480047FEE7FEE7FEE7FEE7FEE7FEE707
:10040000FEE7FEE7FEE7FEE704480549034A054B21
:1004100070470000490C02088901010898FA012080
:1004200098FE012098FA012010B5FF48006818F0E6
:100430002FFBFE48006818F02BFBFD48006818F001
:1004400027FBFC48006818F023FBFB48006818F005
:100450001FFBFA48006818F01BFBF948006818F009
:1004600017FB10BD10B500244FF4007018F014FBFA
:10047000ED4908600846006800B901244FF4007097
:1004800018F00AFBE94908600846006800B9012431
:100490004FF4007018F000FBE5490860084600685A
:1004A00000B90124A02018F0F7FAE24908600846D4
:1004B000006800B90124402018F0EEFADE49086017
:1004C0000846006800B90124402018F0E5FADB492D
:1004D00008600846006800B901244FF4F87018F06D
:1004E000DBFAD74908600846006800B901240CB15E
:1004F000FFF79AFF204610BD2DE9F04704460D4650
:100500001646701B00EBD07105EB610954F8397089
:1005100004EBC901486844F056FC804654F83500A5
:1005200044F8390004EBC500406804EBC901486099
:10053000A94605F1010A1DE054F83A00394644F095
:1005400051FC15D854F83A0044F8390004EBCA00BD
:10055000406804EBC901486009F1010954F8390009
:1005600044F83A0004EBC900406804EBCA01486053
:100570000AF1010AB245DFDDA9EB0500012805DD1E
:10058000A9F1010229462046FFF7B6FFA6EB0900B4
:10059000012805DD324609F101012046FFF7ACFFD5
:1005A00044F83970404644F015FC04EBC90148603A
:1005B000BDE8F0872DE9F84F04460D4616461F4664
:1005C0004FF0000828E04FF0000920E04FF0000B4A
:1005D000DA4612E00B9A0AFB029255F822100A9AA8
:1005E00008FB02A254F8220044F014FC5946009083
:1005F00044F0CBFB83460AF1010A0A988245E9DB05
:100600000B9808FB009046F820B009F101090B98FF
:100610008145DBDB08F10108B845D4DBBDE8F88F84
:10062000024612B909B900207047002A02DD09B953
:100630000020F9E7002903DD8A4201DD0120F3E70C
:10064000002A03DD914201D10220EDE7002A03DDFB
:100650008A4201DA0320E7E71AB9002901DD042004
:10066000E2E7002A08DA101E01DB034600E04342FD
:100670008B4201DA0520D7E7002A08DA101E01DBD9
:10068000034600E043428B4201D10620CCE7002A1A
:100690000ADA101E01DB034600E043428B4203DD11
:1006A000002901DD0720BFE719B9002A01DA082077
:1006B000BAE7002903DA914201DD0920B4E7002AF4
:1006C00003DA914201D10A20AEE7002A03DA91420F
:1006D00001DA0B20A8E71AB9002901DA0C20A3E7F8
:1006E00000290ADA081E01DB034600E04342934278
:1006F00003DD002A01DD0D2096E7002908DA081E37
:1007000001DB034600E04342934201D10E208BE718
:10071000002908DA081E01DB034600E04342934249
:1007200001DA0F2080E700207EE730B5034601B1F3
:100730000AB9002030BD412901D0412A01D1002051
:10074000F8E7491E521E03EBC20000EBE1000478FB
:1007500001F007050120A840044201D00120E9E78B
:100760000020E7E72DE9FE4F04460D4616461F46DA
:1007700000200190781C82000021324818F090F986
:10078000781C82000021304818F08AF94FF00008E8
:1007900019E04FF0000912E004EBC80000EBE9009B
:1007A000017809F0070201209040014205D04FF086
:1007B0007E51019844F0E9FA019009F10109B1452F
:1007C000EADB08F10108A845E3DB384644F002FB08
:1007D00082460146019844F0EDFA01900120029012
:1007E00049E04FF0000AD0463AE04FF0000912E02D
:1007F00004EBC90000EBE800017808F007020120D3
:100800009040014205D04FF07E51504644F0BDFA71
:10081000824609F10109A945EADB029844F0DAFAB7
:100820000090019912E00000240A0020280A00200C
:100830002C0A0020300A0020340A0020380A002048
:100840003C0A002010FA012024FA012044F0E2FAC8
:100850008346514644F0C6FA00D804E008F1010886
:10086000701E4045C1DC00BFFD48029940F8218060
:100870000298401C0290781C02998142B1DB012051
:10088000029035E04FF0000AD14626E04FF0000814
:1008900012E004EBC90000EBE800017808F0070261
:1008A00001209040014205D04FF07E51504644F067
:1008B0006CFA824608F10108B045EADB029844F080
:1008C00089FA0090019944F0A5FA8346514644F014
:1008D00089FA00D804E009F10109681E4845D5DC11
:1008E00000BFE049029841F820900298401C029015
:1008F000781C02998142C5DB0020029032E0029907
:1009000091FBF7F1D74A52F82120029991FBF7F1B8
:10091000491CD44B53F82110501800EBD0714910EA
:10092000D14A1268029B42F82310029991FBF7F218
:1009300007FB1211CA4A52F82120029991FBF7F3E2
:1009400007FB1311491CC64B53F82110501800EB3C
:10095000D0714910C54A1268029B42F823100298D0
:10096000401C029007FB07F002998842C7DCBDE8F3
:10097000FE8F2DE9F34F8FB0402440200A901025C0
:10098000AA000021B948006818F08AF8AA000021DE
:10099000B548006818F084F8042321460A9A0F9895
:1009A000FFF7E0FEE2000021B148006818F078F897
:1009B00000200B9060E3AC4801680B9851F82000D0
:1009C0000290AA4801680B9851F820000190029803
:1009D0000830402801DD402001E0029808300890EE
:1009E00001980830402801DD402001E001980830DE
:1009F00006900298083801D5002001E002980838D6
:100A000009900198083801D5002001E001980838C4
:100A1000079009980E9027E307980D901CE3DDE9F5
:100A20000D120F98FFF781FE8146DDE90D12491C7A
:100A30000F98FFF77AFE022101FB0099DDE90D1204
:100A4000891C0F98FFF771FE81440E9A921C0D9934
:100A50000F98FFF76AFEA9EB00090E9A921C0D99F8
:100A6000491C0F98FFF761FE022101FB10990E9AB5
:100A7000921C0D99891C0F98FFF757FEA9EB0000F7
:100A800007B2DDE90D12891C0F98FFF74EFE814673
:100A90000E9A521C0D99891C0F98FFF746FE0221F1
:100AA00001FB00990E9A921C0D99891C0F98FFF773
:100AB0003CFE8144DDE90D120F98FFF736FEA9EBED
:100AC00000090E9A521C0D990F98FFF72EFE022175
:100AD00001FB10990E9A921C0D990F98FFF725FEB5
:100AE000A9EB00000FFA80F8002F02DBB8F1000F2D
:100AF00000DA00BF41463846FFF792FD03900398A5
:100B000041100B9801FB05060398401C40100B99FF
:100B100000FB0510059002990E98401A083000EB72
:100B20000010019A0D99891A08440830514951F86A
:100B300020000490039810281CD2DFE800F0081C65
:100B40004A629FB3F2F0EFEEEDECEBEAE9E83846EB
:100B500044F040F98246049944F05CF981464448E7
:100B6000006850F82610484644F00FF940490968DB
:100B700041F826006CE2A7EB080044F02BF982460E
:100B8000049944F047F981463948006850F8261026
:100B9000484644F0FAF83649096841F826004046CC
:100BA00044F018F98346344944F034F982460499F4
:100BB00044F030F981462E480268059852F820101A
:100BC000484644F0E2F82A490968059A41F82200AB
:100BD0003EE2404644F0FEF88346274944F01AF9C5
:100BE0008246049944F016F981462148006850F87D
:100BF0002610484644F0C9F81D49096841F8260006
:100C000026E2384644F0E6F883461B4944F002F9F0
:100C10008246049944F0FEF881461548006850F871
:100C20002610484644F0B1F81149096841F82600F9
:100C3000A8EB070044F0CEF88246049944F0EAF8A5
:100C400081460B480268059852F82010484644F047
:100C50009CF807490A68059942F82100F8E100006C
:100C600010FA012024FA0120380A0020340A00205A
:100C7000280A0020484A0608F704B53F404644F0D9
:100C8000A9F88246049944F0C5F88146FE480068F8
:100C900050F82610484644F078F8FB49096841F8B6
:100CA0002600D5E107EB080044F094F88246049949
:100CB00044F0B0F88146F448006850F826104846E1
:100CC00044F063F8F049096841F82600B7F10009DB
:100CD00001DB494601E0C9F10001084644F07AF819
:100CE000EA49009044F096F88346049944F092F85B
:100CF0008246E5480068059A50F82210504644F0B4
:100D000044F8E1490968059A41F82200A0E166E14A
:100D10004DE111E1F5E0BFE09FE069E04DE018E052
:100D2000FFE7404644F056F88346D84944F072F84D
:100D30008246049944F06EF88146D348006850F822
:100D40002610484644F021F8CF49096841F82600AA
:100D50007EE1404644F03EF88346CC4944F05AF8E0
:100D60008246049944F056F88146C748006850F816
:100D70002610484644F009F8C349096841F826009E
:100D800017EB080901D4494601E0C9F10001084602
:100D900044F020F88346049944F03CF88246BA486F
:100DA0000068059A50F82210504643F0EEFFB6490D
:100DB0000968059A41F822004AE1B7F1000901DB10
:100DC000494601E0C9F10001084644F003F88346B2
:100DD000049944F01FF88246AB48006850F826108A
:100DE000504643F0D2FFA849096841F826002FE198
:100DF000A8EB070043F0EEFF8246049944F00AF89E
:100E00008146A148006850F82610484643F0BDFFCF
:100E10009D49096841F82600B8F1000901DB4946FF
:100E200001E0C9F10001084643F0D4FF9749009062
:100E300043F0F0FF8346049943F0ECFF824692486A
:100E40000068059A50F82210504643F09EFF8E49E4
:100E50000A68059942F82100FAE0B8F1000901DBBF
:100E6000494601E0C9F10001084643F0B3FF874954
:100E7000009043F0CFFF8346049943F0CBFF8246B6
:100E80008148006850F82610504643F07EFF7E49A6
:100E9000096841F82600DBE0B7F1000901DB4946AB
:100EA00001E0C9F10001084643F094FF7749009042
:100EB00043F0B0FF8346049943F0ACFF824672488A
:100EC000006850F82610504643F05FFF6E490968ED
:100ED00041F82600A7EB080043F07CFF8246049906
:100EE00043F098FF814668480268059852F8201040
:100EF000484643F04AFF64490A68059942F82100D0
:100F0000A6E0B8F1000901DB494601E0C9F10001A2
:100F1000084643F05FFF8346049943F07BFF824617
:100F20005948006850F82610504643F02EFF5649A5
:100F3000096841F826008BE017EB080901D44946FF
:100F400001E0C9F10001084643F044FF83460499DB
:100F500043F060FF82464C48006850F82610504627
:100F600043F013FF4849096841F82600B7F100092A
:100F700001DB494601E0C9F10001084643F02AFFC0
:100F80004249009043F046FF8346049943F042FFF4
:100F900082463D480068059A50F82210504643F0BA
:100FA000F4FE39490A68059942F8210050E03846B4
:100FB00043F010FF8346354943F02CFF82460499E5
:100FC00043F028FF81463048006850F82610484614
:100FD00043F0DBFE2C49096841F8260038E0B8F1FF
:100FE000000901DB494601E0C9F10001084643F070
:100FF000F1FE2649009043F00DFF8346049943F02B
:1010000009FF82462048006850F82610504643F0F9
:10101000BCFE1D49096841F8260017EB080901D4F8
:10102000494601E0C9F10001084643F0D3FE83467A
:10103000049943F0EFFE82461348006850F82610EA
:10104000504643F0A2FE1049096841F8260000BF4F
:1010500000BF0D98401C0D9006990D9888427FF7AF
:10106000DEAC0E98401C0E9008990E9888427FF7CF
:10107000D3AC0B98401C0B900B98A8427FF49BAC10
:1010800000200B901FE00000280A0020F704B53F65
:1010900000200C9011E0DDE90B0101FB0506FF4982
:1010A000096851F82600FE4934F0DEFBFD49096865
:1010B00041F826000C98401C0C900C980828EADB9C
:1010C0000B98401C0B900B981028E1DB11B0BDE889
:1010D000F08F2DE9FF4F8BB004460D461E46199F39
:1010E0000020079090E2079805EB80000088ADF89B
:1010F0002800079805EB80004088ADF82A00079883
:10110000401C05EB80000088ADF824000798401CC7
:1011100005EB80004088ADF82600BDF92800BDF938
:101120002410884272D1BDF92A00089067E0002E91
:1011300041D04FF0FF383AE04FF0FF30069031E0F9
:10114000089810EB08002AD4089800EB08011898BA
:10115000814224DABDF92800069940181FD4BDF950
:10116000281006980844B84219DABDF928100698E4
:10117000084405900898404404EBC000059900EB32
:10118000E100007801F0070201219140084308992D
:10119000414404EBC101059A01EBE2010870069895
:1011A000401C069006980228CAD108F10108B8F13F
:1011B000020FC1D116E0BDF928000590089804EB94
:1011C000C001059801EBE0000078059901F00702E5
:1011D000012191400843089904EBC102059902EBF3
:1011E000E1010870BDF92600BDF92A10884203DD2F
:1011F0000898401C089002E00898401E0890BDF92D
:1012000026100898814292D1FBE1FFE7BDF92A0040
:10121000BDF92610884275D1BDF9280008906AE012
:10122000002E42D04FF0FF383BE04FF0FF300690E9
:1012300032E00699089840182BD40699089808447B
:101240001899884225DABDF92A0010EB080020D44D
:10125000BDF92A004044B8421BDA069908980844B0
:101260000590BDF92A00404404EBC001059801EB4C
:10127000E0000078059901F0070201219140084340
:10128000BDF92A10414404EBC102059902EBE101CA
:1012900008700698401C069006980228C9D108F1EB
:1012A0000108B8F1020FC0D118E008980590BDF907
:1012B0002A0004EBC001059801EBE00001780598D5
:1012C00000F00702012090400143C8B2BDF92A1086
:1012D00004EBC101059A01EBE2010870BDF924009D
:1012E000BDF92810884203DD0898401C089002E0F0
:1012F0000898401E0890BDF92410089881428FD1AB
:101300007FE1FFE7BDF92410BDF92820881A43F0DA
:1013100061FD8246BDF92610BDF92A20881A43F0E6
:1013200059FD8346514643F045FD814643F002FD99
:10133000CDE9020121F00041CDE900015AA00CC81D
:10134000009843F0C5F913D2BDF92410BDF9282047
:10135000881A43F03FFD8146BDF92610BDF92A20C9
:10136000881A43F037FD8246494643F023FD12E0D8
:10137000BDF92610BDF92A20881A43F02BFD8146BD
:10138000BDF92410BDF92820881A43F023FD8246B8
:10139000494643F00FFD0490BDF92420BDF92830E3
:1013A000D01ABDF92620BDF92A30D11A01D40B4636
:1013B00000E04B42002801DB024600E0424293423B
:1013C0006BDA002008907EE0089843F003FD03905C
:1013D000049943F01FFD834643F0F5FCBDF92A1044
:1013E00000EB0109BDF92800089900EB010A002E65
:1013F0003CD04FF0FF3835E04FF0FF3006902CE046
:1014000019EB080026D409EB08001899884221DA64
:1014100006981AEB00001DD406985044B84219DA19
:101420000AF10100059009EB080004EBC0000599E2
:1014300000EBE1000178059800F0070201209040E0
:101440000143C8B209EB080104EBC101059A01EBA5
:10145000E20108700698401C069006980228CFD139
:1014600008F10108B8F1020FC6D113E0CDF814A0BD
:1014700004EBC900DDF814A000EBEA0001780AF0E3
:101480000702012090400143C8B204EBC90101EBFF
:10149000EA010870BDF924000AE01EE0280A0020D5
:1014A00085EBD13E2C0A0020000000000000F03F38
:1014B000BDF92810884203DD0898401C089002E01E
:1014C0000898401E0890BDF92400BDF92810401A64
:1014D000089988427FF478AF92E0BDF92420BDF9E5
:1014E0002830D01ABDF92620BDF92A30D11A01D4EE
:1014F0000B4600E04B42002801DB024600E042427E
:1015000093427DDB0020089072E0BDF92A10089814
:1015100001EB0009089843F05DFC0390049943F047
:1015200079FC834643F04FFCBDF9281000EB010A1B
:10153000002E3CD04FF0FF3835E04FF0FF300690E2
:101540002CE019EB080026D409EB08011898814219
:1015500021DA06981AEB00001DD406985044B842D0
:1015600019DA06985044059009EB080004EBC00016
:10157000059900EBE1000178059800F007020120D1
:1015800090400143C8B209EB080104EBC101059A80
:1015900001EBE20108700698401C069006980228AC
:1015A000CFD108F10108B8F1020FC6D113E0CDF890
:1015B00014A004EBC900DDF814A000EBEA000178E8
:1015C0000AF00702012090400143C8B204EBC901B0
:1015D00001EBEA010870BDF92600BDF92A10884226
:1015E00003DD0898401C089002E00898401E08900F
:1015F000BDF92600BDF92A10411A0898814284D10C
:1016000000BF0798401C07900D98411E0798814223
:101610007FF469AD0FB0BDE8F08F2DE9F04F099C64
:1016200015464FF0FF360F46B4464FF0000935E03F
:1016300000EB890ABAF902A0BA4504DA00EB890A7C
:10164000BAF902A000E0BA46574600EB890ABAF997
:1016500000A0AA4504DA00EB890ABAF900A000E06C
:10166000AA46554600EB890ABAF902A0E24504DD14
:1016700000EB890ABAF902A000E0E246D44600EB8A
:10168000890ABAF900A0B24504DD00EB890ABAF96B
:1016900000A000E0B246564609F10109DDF828A095
:1016A000D145C5DBACEB070A0AF1010A93FBFAFA54
:1016B0000AF1010EA6EB050A0AF1010A94FBFAFAF7
:1016C0000AF101084FF000092BE000EB890ABAF992
:1016D00002A0AAEB070A0AFB03FAACEB070B0BF11B
:1016E000010B9AFBFBFAF2440FFA8AFA00EB890B22
:1016F000ABF802A000EB890ABAF900A0AAEB050A30
:101700000AFB04FAA6EB050B0BF1010B9AFBFBFAA3
:10171000C2440FFA8AFA00EB890BABF800A009F17A
:101720000109DDF828A0D145CFDBBDE8F08F2DE918
:10173000FF4784B014461D46BDF91000BDF91410D2
:10174000884223D1002619E0BDF81000296804EB77
:1017500081010880BDF81200304400B2296804EB12
:10176000810148802868401C2860BDF91600BDF939
:101770001210884201DD761C00E0761EBDF91600CD
:10178000BDF91210401AB042DED1E9E0BDF91200F5
:10179000BDF91610884223D1002619E0BDF81200C9
:1017A000296804EB81014880BDF81000304400B284
:1017B000296804EB810108802868401C2860BDF975
:1017C0001400BDF91010884201DD761C00E0761E81
:1017D000BDF91400BDF91010401AB042DED1BFE0CF
:1017E000BDF91410BDF91020881A43F0F3FA8146B0
:1017F000BDF91610BDF91220881A43F0EBFA8246A3
:10180000494643F0D7FA804643F094FACDE9020105
:1018100021F00041CDE90001AFF274300CC800980E
:1018200042F056FF13D2BDF91410BDF91020881AEA
:1018300043F0D0FA8046BDF91610BDF91220881A7F
:1018400043F0C8FA8146414643F0B4FA12E0BDF9CC
:101850001610BDF91220881A43F0BCFA8046BDF973
:101860001410BDF91020881A43F0B4FA814641469D
:1018700043F0A0FA0746BDF91420BDF91030D01A84
:10188000BDF91620BDF91230D11A01D40B4600E083
:101890004B42002801DB024600E0424293422FDC2B
:1018A000002625E0BDF81000304400B2296804EBA2
:1018B00081010880304643F08DFA8146394643F075
:1018C000A9FA804643F07FFABDF81210084400B22E
:1018D000296804EB810148802868401C2860BDF914
:1018E0001400BDF91010884201DD761C00E0761E60
:1018F000BDF91400BDF91010401AB042D2D12EE04B
:10190000002625E0BDF81200304400B2296804EB3F
:1019100081014880304643F05DFA8146394643F004
:1019200079FA804643F04FFABDF81010084400B22F
:10193000296804EB810108802868401C2860BDF9F3
:101940001600BDF91210884201DD761C00E0761EFB
:10195000BDF91600BDF91210401AB042D2D100BF35
:1019600008B0BDE8F0872DE9F84F04460D4616464D
:10197000701E00EBD0714FEA6109A5EB09000090E1
:10198000CA46A80017F088F88346AA0021465846A0
:1019900000F08DFEB54205DB06EBD6714910B6EBC3
:1019A000410101D1BDE8F88F4F463CE0002004EB37
:1019B0008701088004EB87014880CAF100081BE01A
:1019C00004EB8700008807EB08010BEB8101098815
:1019D000084400B204EB8701088004EB87004088CC
:1019E00007EB08010BEB81014988084400B204EBC6
:1019F0008701488008F10108D045E1DD04EB87004C
:101A0000B0F9000090FBF6F000B204EB870108800B
:101A100004EB8700B0F9020090FBF6F000B204EB93
:101A2000870148807F1C00988742BFDB584617F02B
:101A30002FF8B7E72DE9FF4F91B004460D461E9EE3
:101A40000327802010900F9040200E900D900020D2
:101A50000B900A9081468020099005200490294629
:101A60002046049AFFF77FFF4FF0010A29E004EBBC
:101A70008A01B1F90010AAF1010204EB8202B2F965
:101A80000020881A01D4014600E04142089104EB8D
:101A90008A01B1F90210AAF1010204EB8202B2F943
:101AA0000220881A01D4014600E041420791DDE995
:101AB0000710884201DB089800E0079881440AF18A
:101AC000010AAA45D3DB4FEA890016F0E5FF8046FC
:101AD0004FEA89020021404616F0E2FF4FF0000A6B
:101AE00015E00AF1010004EB8001042203A800F0D4
:101AF000DEFD04EB8A01042202A800F0D8FD0AAB47
:101B00004246DDE90201FFF712FE0AF1010A681EF2
:101B10005045E6D14FEA8900B0FBF7F0039016F08C
:101B2000BBFF0C904FEA8900B0FBF7F002460021A2
:101B300003900C9816F0B4FF4FF0000A13E008EB86
:101B40008A000088DDE90B2101EB8201088008EBA7
:101B50008A004088DDE90B2101EB820148800B9867
:101B6000401C0B90BA44CA45E9DB404616F090FF92
:101B70000B9B0E9ACDE90023DDE90C03DDE90F1282
:101B8000FFF74BFD4FF400720021FD48006816F08E
:101B900087FFDDE90D23CDE900230123F848DDE9C6
:101BA0000B210068FFF795FA0C9816F071FFF448C6
:101BB00009990068FEF7DDFE2823099ACDE9002384
:101BC0000123F048F0490268F0480068FEF7F2FC93
:101BD0001498012806D0022809D003280CD0042824
:101BE00014D10EE0002006900A20059012E00A2091
:101BF0000690242005900DE0242006903E200590BC
:101C000008E0002006903E20059003E0002015B07B
:101C1000BDE8F08F00BF4FF4F8720021DC48006887
:101C200016F03EFF4FF0000A40E04FF0000B30E0AE
:101C3000069A524402EB8202D64B03EB421252F850
:101C40002B10D04A126852F82B0043F03CF9029056
:101C5000069A524402EB8202CE4B03EB421252F838
:101C60002B10C84A126852F82B0043F02CF901904F
:101C7000029943F0CFF80390C548006850F83A1035
:101C8000039843F082F8C249096841F83A000BF121
:101C9000010BBBF1280FCBD1504643F09BF8BC4958
:101CA000096801EBCA0148600AF1010ADDE9050192
:101CB000401A5045B9D1DDE90501401A421E002104
:101CC000B3480068FEF718FC4FF0000A0EE0B04978
:101CD000096801EBCA01486843F075F806990844A1
:101CE000AD49085C06F80A000AF1010A139882451A
:101CF000EDDB002006F80A00307888E72DE9F84F80
:101D000004460D4616461F46DDF828804FF00009B0
:101D10004FF6FF7AD346012D02DCC846BDE8F88FA6
:101D20004FF000091CE004EB8900B0F9001009F144
:101D3000010004EB8000B0F9000081420BD104EBFC
:101D40008900B0F9021009F1010004EB8000B0F93C
:101D50000200814200D006E009F101001FFA80F97B
:101D6000681E4845DFDC00BF681E484500D1D5E746
:101D70004FF0000919E004EB8900B0F9000050456C
:101D800004DA04EB890000881FFA80FA04EB89006A
:101D9000B0F90200584504DA04EB890040881FFAC4
:101DA00080FB09F101001FFA80F9A945E3DB4FF040
:101DB000000915E004EB89000088A0EB0A0000B2DE
:101DC00004EB8901088004EB89004088A0EB0B003C
:101DD00000B204EB8901488009F101001FFA80F983
:101DE000A945E7DB3B46324629462046CDF8008030
:101DF000FFF720FE92E72DE9F84F4FF00009C3F8F6
:101E000000900124EBE0A4F1010900EB8909B9F984
:101E1000005000EB8409B9F900A0CDF800A0A4F1AE
:101E2000010900EB8909B9F9026000EB8409B9F9ED
:101E30000270DDF800A0BAEB050901D4CA4601E042
:101E4000C9F1000AD446B7EB060901D4CA4601E03D
:101E5000C9F1000AD646F44559DD4FF0000853E0B9
:101E6000DDF80090A9450ADD05EB08090FFA89F9AC
:101E7000D3F800A002EB8A0AAAF8009009E0A5EBCB
:101E800008090FFA89F9D3F800A002EB8A0AAAF828
:101E90000090B7421ADDD3F800A002EB8A0ABAF923
:101EA00000A0BAEB050901D4CA4601E0C9F1000A55
:101EB0000AFB0EFA9AFBFCFAB2440FFA8AFAD3F83C
:101EC00000B002EB8B0BABF802A01AE0D3F800A035
:101ED00002EB8A0ABAF900A0BAEB050901D4CA4696
:101EE00001E0C9F1000A0AFB0EFA9AFBFCFAA6EB24
:101EF0000A0A0FFA8AFAD3F800B002EB8B0BABF8A0
:101F000002A01B1D08F10108E045A9DB66E04FF0C7
:101F1000000861E0B7420ADD06EB08090FFA89F90B
:101F2000D3F800A002EB8A0AAAF8029009E0A6EB17
:101F300008090FFA89F9D3F800A002EB8A0AAAF877
:101F40000290DDF80090A94528DDD3F800A002EB4F
:101F50008A0ABAF902A0BAEB060901D4CA4601E01E
:101F6000C9F1000A0AFB0CFA9AFBFEFAAA440FFA1E
:101F70008AFAD3F800B002EB8B0BABF800A028E094
:101F8000240A0020300A00200C5406082C0A0020E5
:101F90003C0A00200CA40608CCCA0608D3F800A00E
:101FA00002EB8A0ABAF902A0BAEB060901D4CA46C2
:101FB00001E0C9F1000A0AFB0CFA9AFBFEFAA5EB54
:101FC0000A0A0FFA8AFAD3F800B002EB8B0BABF8CF
:101FD00000A01B1D08F10108F0459BDB641C8C422E
:101FE000FFF611AFBDE8F88F7047000010B500F0A4
:101FF00095FC001D10BD00BFDD20040053EA020C5B
:1020000000F069802DE9F04B4FF00006002B1FBF58
:10201000B3FA83F503FA05F424FA05F65E4012BF1D
:102020001643B2FA82F502FA05F4C5F120051EBF87
:1020300022FA05FC44EA0C04203556EA044C4FEA27
:10204000144418BF641C4FF000084FF00009904280
:1020500071EB030C39D3002919BFB1FA81F701FAEA
:1020600007F6B0FA80F700FA07F6C7F120071EBF9F
:1020700020FA07FC46EA0C062037B6FBF4FCA7EB77
:102080000507103F07F01F0BCBF120060CFA0BFBE6
:102090002CFA06F644BFB3460026202FA4BF5E46A6
:1020A0004FF0000B5BEA060C08BF4FF0010B19EB79
:1020B0000B09ABFB027C48EB0608C01B06FB02CCFD
:1020C0000BFB03CC71EB0C01C1E70B46024641460A
:1020D0004846BDE8F08B13B54FF000004FF000010B
:1020E000AFF30080BDE81C40704710B54C1084EA87
:1020F000530404D54042C1F1000138BF491E1B42C0
:1021000004D55242C3F1000338BF5B1EFFF776FFD0
:1021100014F0804F04D04042C1F1000138BF491E85
:1021200014F0004F04D05242C3F1000338BF5B1ECD
:1021300010BD00001CB50C46064B7B446946009060
:10214000204600F090FE04460020694600F09EFE06
:1021500020461CBD4F0D00000FB4044910B503AA62
:10216000029800F0AFFE10BC5DF814FB08000020E0
:102170000FB41CB5084B06AA7B446946009005982D
:1021800000F071FE04460020694600F07FFE204604
:102190001CBC5DF814FB0000110D000070B5044676
:1021A00085690068C10601D5302600E02026C007F9
:1021B00007D070BDD4E9012130469047206A401C09
:1021C00020626D1EF6D570BD70B504468569007835
:1021D000C00707D170BDD4E9012120209047206AB3
:1021E000401C20626D1EF6D570BD70B50C460546CC
:1021F000012A05D02878800600D5EA69002302E08C
:10220000012305E05B1C934202D2E05C0028F9D177
:10221000A869E618C01AA861286A184428622846E6
:10222000FFF7BCFF04E0D5E9012114F8010B90474A
:10223000B442F8D32846FFF7C7FF70BD2DE9F0413F
:102240000646002410687529314616A510D000F006
:1022500078FB002802DA404213A507E031688A07BC
:1022600001D512A502E0490704D511A5012401E01A
:1022700000F070FB00210A2206F1240709E0B0FB00
:10228000F2FCB0FBF2F302FB1C003030785418462D
:10229000491C0028F3D123462A463046BDE8F041C8
:1022A00000F061BB000000002D0000002B000000CA
:1022B00020000000F0B40D460188090502D5214C2C
:1022C0007C4402E01F4C7C440E34002100F12406C3
:1022D00008E002F00F071209E75D42EA03721B09EA
:1022E0007754491C52EA0307F3D1027800231207FE
:1022F00004D5702D06D009B1022311342246F0BC5A
:1023000000F031BB01231034F8E770B504460D46E8
:102310002146106800F01EFB024629462046BDE813
:1023200070400023C6E7D21D22F00703D3E9002343
:10233000C0E70368126843F0200303600823C36109
:102340000023B7E746A805002DE9F05F894604465B
:102350004FF0000ADFF874B1FB44C0F820A020461B
:10236000E1688847002874D0252806D0D4E90121E7
:102370009047206A401C2062F1E700265F46204615
:10238000E16888472028054607DB312D05D27819FA
:1023900010F8200C08B10643F1E7B00701D526F08C
:1023A0000406C4F81CA00027C4F818A02A2D09D0E0
:1023B000284616F033FA38B304EB8708303DC8F8E6
:1023C000185019E059F8041B204604EB870291616C
:1023D000E1688847012F054618D1E069002820DA16
:1023E00026F020061DE0D8F8180000EB800005EB71
:1023F00040003038C8F818002046E1688847054694
:1024000016F00CFA0028EED1012F0AD02E2D08D19B
:102410002046E16888477F1C0546022F46F02006CB
:10242000C4DBA069002803DA404246F00106A0613F
:10243000F00701D026F010066C2D0BD0682D09D0C6
:102440004C2D39D06A2D35D0742D35D07A2D33D01E
:1024500016E038E0E1682F4620468847B842054636
:1024600009D16C2F26D04FF48060E16806432046E6
:102470008847054604E06C2F1AD04FF4807006435D
:102480000DB3A5F14100192802D8203546F40066A5
:102490004A462946204626604E46FDF7CFFE80B1CB
:1024A00001280BD0F61D26F0070000F1080956E7B9
:1024B0004020E4E78020D8E70020D6E706F10409B1
:1024C0004DE7284652E7206ABDE8F09FD6A70500F1
:1024D00070B5064600F026FA0468054630460A2222
:1024E000002100F0D5FD2C6070BD401ECAB210F86E
:1024F000011F8A4202D00029F9D10020704730B56F
:1025000005460B462A4613F8014B12F8010B08B199
:10251000A042F8D01CB1002802D06D1CF1E728467B
:1025200030BD40EA010310B59B070FD1042A0DD33B
:1025300010C808C9121F9C42F8D020BA19BA8842A4
:1025400001D9012010BD4FF0FF3010BD1AB1D307E3
:1025500003D0521C07E0002010BD10F8013B11F819
:10256000014B1B1B07D110F8013B11F8014B1B1B42
:1025700001D1921EF1D1184610BD40EA0103024676
:1025800030B59B0710D14FF0013400E008C208C9F4
:102590001D1B9D4315EAC41FF8D013F0FF0102F87C
:1025A000011B0DD01B0AF8E711F8013B002B02F8C4
:1025B000013B05D011F8013B002B02F8013BF3D1A0
:1025C00030BD10B5431C02E010F8011B71B181074A
:1025D000FAD14FF0013202C88C1A8C4314EAC211AE
:1025E000F9D0C01A0A0603D0C01E10BDC01A10BD13
:1025F0000A0401D0801E10BD0902FCD0401E10BD8F
:1026000040EA010370B59B072ED14FF00136042A32
:102610002AD308C810C99D1B9D43121F15EAC61571
:1026200017D0D8B2E1B2401A50EA056110D198B281
:10263000A1B2401A50EA05410AD123F07F4024F0AC
:102640007F41401A50EA052102D1180EA0EB146018
:1026500070BDA342DBD018BA21BA884201D901204B
:1026600070BD4FF0FF3070BD0AB9002070BD10F88A
:10267000013B11F8014B63B1A3420AD1521E08D0AD
:1026800010F8013B11F8014B1BB1A34201D1521EBE
:10269000EDD1181B70BD421E12F8013F002BFBD17B
:1026A00011F8013B002B02F8013BF9D17047032AD6
:1026B00040F2308010F0030C00F0158011F8013B5F
:1026C000BCF1020F624498BF11F801CB00F8013B46
:1026D00038BF11F8013BA2F1040298BF00F801CB0A
:1026E00038BF00F8013B11F0030300F02580083AE1
:1026F000C0F0088051F8043B083A51F804CBA0E838
:102700000810F5E7121D5CBF51F8043B40F8043B8C
:10271000AFF30080D20724BF11F8013B11F801CBC1
:1027200048BF11F8012B24BF00F8013B00F801CB92
:1027300048BF00F8012B704710B5203AC0F00B805D
:10274000B1E81850203AA0E81850B1E81850A0E8B5
:102750001850BFF4F5AF5FEA027C24BFB1E818500F
:10276000A0E8185044BF18C918C0BDE810405FEA7F
:10277000827C24BF51F8043B40F8043B08BF7047FB
:10278000D20728BF31F8023B48BF11F8012B28BF00
:1027900020F8023B48BF00F8012B704702F0FF030E
:1027A00043EA032242EA024200F002B84FF000027C
:1027B0000429C0F0128010F0030C00F01B80CCF153
:1027C000040CBCF1020F18BF00F8012BA8BF20F8C1
:1027D000022BA1EB0C0100F00DB85FEAC17C24BF15
:1027E00000F8012B00F8012B48BF00F8012B7047BF
:1027F0004FF0000200B5134694469646203922BF9A
:10280000A0E80C50A0E80C50B1F12001BFF4F7AFE4
:10281000090728BFA0E80C5048BF0CC05DF804EBC6
:10282000890028BF40F8042B08BF704748BF20F834
:10283000022B11F0804F18BF00F8012B704710B524
:10284000044610F0030F08BF11F0030F40F015808D
:102850004FF0013E121FC0F20E8051F8043BA3EB73
:102860000E0C2CEA030C1CEACE1C08BF40F8043BFB
:10287000F0D0A1F1040102F10402521E08DB11F8AC
:10288000013B002B00F8013BF7D11146FFF78EFF0B
:10289000204610BD4FF0013C50F8042B51F8043B8A
:1028A0009A4221D1A2EB0C03934313EACC1317D124
:1028B00050F8042B51F8043B9A4215D1A2EB0C03BB
:1028C000934313EACC130BD150F8042B51F8043B7B
:1028D0009A4209D1A2EB0C03934313EACC13DBD049
:1028E0004FF00000704700BFD01A01BAB1FA81F171
:1028F00001F0180122FA01F0CB40C1F12001DBB256
:10290000C0B2C01A2CFA01F3D11A914311EAC311D3
:10291000E6D170477047704770477047004870476E
:1029200058FA01200048704738FA012010B5FFF727
:10293000F9FF006810BD10B50446FFF7F3FF04600F
:1029400010BD09684A0501D540B27047C905FCD5DC
:1029500000B2704709684A0501D5C0B27047C90581
:10296000FCD580B270472DE9F0470D469946924656
:10297000044600F124080168880604D5E06921F0C6
:102980001001216000E00120A84201DD471B00E0AA
:102990000027A1697A1902EB0900081AA0612078C2
:1029A000C00602D42046FFF7F9FB002608E0D4E970
:1029B00001211AF806009047206A401C761C20620C
:1029C0004E45F4DB2078C0060AD52046FFF7E6FB2B
:1029D00006E0D4E9012130209047206A401C2062A3
:1029E000381EA7F10107F4DC07E0D4E9012118F84B
:1029F00005009047206A401C2062281EA5F10105B1
:102A0000F3DC2046FFF7E0FB2078000602D5022029
:102A1000BDE8F0870120FBE711680268006A5305F2
:102A200001D508700AE0D30501D5088006E0130639
:102A300003D5C217C1E9000200E008600120704719
:102A400070472DE9FF4F0C461E464FF0FF378BB005
:102A5000D2E90001DDF860800A908A46C1F30A5588
:102A600005B93D46002108464FF00000BAF1000FBD
:102A700000F4400005DA00EB80004FF4400101EA69
:102A800050004FEA9059B9F1010F00DDB9460A989C
:102A900050EA4A000ED044F61050A5F2FF354543E7
:102AA0002F14B8F1000F1ED07542291E1EDDC9F18A
:102AB00000021CE0B8F1010F4FF0000001D03021FE
:102AC00003E0F24305E02154401CB042FBDB3046FA
:102AD0000022002121540B99C1F80880C1E900208F
:102AE0000FB0BDE8F08FBD1B6D1CDEE74A4600DA73
:102AF000694206A800F0F4FB06AB93E8070003ABBD
:102B000083E8070050460A9900F0B5FC8DE80700FD
:102B1000A0F500501F3800900398002D09DD42F207
:102B20001F014A46084403A90390684600F014FFB9
:102B300008E0A0F500504A461F3803A903906846F4
:102B400000F01EFF8DE807000004000C03D04FF0DA
:102B5000FF30410800E01046B8F1000F03D000221A
:102B6000009215461EE0751E05D400F0CDFA3032F5
:102B700062556D1EF9D5B3460122084302D00022EA
:102B80007F1C04E02078302801D100227F1E002A1B
:102B9000099786D01DE0112D07DA00F0B5FA303222
:102BA00062556D1C50EA0102F5D1084302D000982D
:102BB000C8B10EE00021681E05E0235C625C63542E
:102BC0002254401E491C8142F7DBAB46A81B401E25
:102BD0000990002004F80B000B98099AC0F80880AF
:102BE000C0E9002B7CE711264FF0000859E72DE9DA
:102BF000F04F88460446D21D22F0070191B0D1E97A
:102C00000001CDE90A0114F077F902460B98C00FD4
:102C100001D02D2007E02068810701D52B2002E09C
:102C2000202101EAC000032A099001D0072A05DB10
:102C300003464146204600F0ADFA0BE120788006BD
:102C400001D5E06900E00620B8F1650F814606D0A5
:102C5000B8F1660F18D0B8F1670F70D131E00020DD
:102C6000B9F1110F009001DB112301E009F101031B
:102C70000AAA01A90CA8FFF7E4FEDDE90C70002602
:102C800009F10105834647E001204B4600904FF0D3
:102C900000470AAA01A90CA8FFF7D3FEDDE90DB091
:102CA0000C995D46002610B909F101000D18B9EB29
:102CB000050003D4C0F1FF3609F10105A5EB0900B9
:102CC0002BE0B9F1010F01DA4FF001090020B9F151
:102CD000110F0090484601DD112300E003460AAAC7
:102CE00001A90CA8FFF7ADFEDDE90C704D460026EA
:102CF0008346207800070AD4AB4500DA5D4601A878
:102D0000012D04DD411911F8011C302907D04F4570
:102D100002DA17F1040F04DA012082460FE06D1E7B
:102D2000EEE7002F02DCED1B3E4403E0781CA842D6
:102D300000DD7D1CB81B00F1010A4FF00047207830
:102D4000000703D4AA4501DB4FF0FF3A0021B7F199
:102D5000004F0DF143088DF8431024D002202B239F
:102D6000002F01DA7F422D230A21021EA0F101006B
:102D700000DC5FB197FBF1FC97FBF1F201FB1C7CDF
:102D800017460CF1300C08F801CDEEE7A8F1010070
:102D900003702188090501D5452100E06521A0F1D6
:102DA000010800F8011C09980FA9A1EB0807FF1DF5
:102DB00000B10120411901EBEA70A1693844081AF9
:102DC000401EA0612078C00602D42046FFF7E6F935
:102DD000099828B1D4E901219047206A401C20625B
:102DE0002078C00622D52046FFF7D8F91EE0002E35
:102DF00004DBB34502DD01A8805D00E03020D4E9AA
:102E000001219047206A401C2062761CAAF1010033
:102E10005FEA000A0AD1FFF781FDC0680168405CE3
:102E2000D4E901219047206A401C2062281EA5F1A8
:102E30000105DCDC07E0D4E9012118F8010B90471B
:102E4000206A401C2062381EA7F10107F3DC2046EF
:102E5000FFF7BAF9032011B043E6000001694A1CEC
:102E600002610878704700B58FB0CDE901310021CB
:102E7000059105497944CDE9031011466846FFF7ED
:102E800063FA0FB000BD0000E5FFFFFF0A6802F81B
:102E9000010B0A60704710B5436913B1AFF30080AE
:102EA00001E0FFF7A2F9012010BD127800F1240122
:102EB0000A7000224A700122EDE711684FF0FF32DC
:102EC000E9E70000074B70B50D467B44FFF7CBFFE9
:102ED0000446284600F072FA10B14FF0FF3070BD82
:102EE000204670BD1F2A02002DE9FF5F15468A4665
:102EF0000446DFF8AC80F8440027D8E900103E46CD
:102F0000CDE9001010E03AF816106A4602A800F069
:102F100059FA411C07D02178890603D5E26939188E
:102F200091420DD80744761C2078800602D5E069CE
:102F3000B84205DDAE42E6DB3AF816000028E2D1E1
:102F4000A069C01BA0612046FFF728F9D8E900104E
:102F5000CDE90010002017E03AF818106A4602A8E0
:102F600000F030FAB0F1FF3F81460BD000250DF1A3
:102F7000080B05E0D4E901211BF8050090476D1C02
:102F80004D45F7D308F10100B0428046E4DB206AEA
:102F9000384420622046FFF717F9BDE8FF9F000084
:102FA000DE9D05002DE9F0418046D21D22F007028A
:102FB0000025D2E90002F52915A614D0011E72F1F0
:102FC000000106DA0023D0EB030063EB020211A636
:102FD00008E0D8F800108B0701D50FA602E04907DA
:102FE00001D50EA601251146002408F1240704E0AE
:102FF00000F08AF830323A55641C50EA0102F7D1E9
:103000002B46324621464046BDE8F041FFF7ABBCB7
:10301000000000002D0000002B0000002000000038
:1030200030B4002100F1240408E002F00705D208C2
:10303000303542EA4372DB086554491C52EA030505
:10304000F3D10468002310A2250708D504F020045A
:103050000C4304D0C46901230CA2641EC46130BCBB
:10306000FFF781BC10B5044621461068FFF772FCDB
:1030700002462046BDE810400023D1E7D21D22F0D1
:103080000701D1E90023CBE7000000003000000079
:103090002DE9F04791460F4680460446002614F875
:1030A000015B2DB1FEF7A2FF0068405DC007F6D1BD
:1030B0002B2D02D02D2D18D0641E4A4639462046AD
:1030C00000F0BEF827B13968A14201D1C7F80080ED
:1030D0004FF0020471050BD54042002803DDFFF7D5
:1030E00021FC0460A007BDE8F08746F48066E4E7B1
:1030F0000028F8DAFFF716FC04606FF00040F2E7F2
:103100000048704738FA012030B5B0F10A024FEAA2
:10311000900E71F100034EEA817EB0EB0E0061EB80
:1031200091014FEA101E4EEA017E10EB0E0041EBBA
:1031300011114FEA102E4EEA016E10EB0E0041EB1A
:1031400011214FEA104E4EEA014E10EB0E0041EBFA
:103150001141401841F100014FEAD00040EA4170AE
:103160004FEAD10110EB80054FEA810444EA9074E4
:1031700044EB01046D1944EB0404521BA3414FF0CE
:10318000000348BF0A3200D530BD401C41F10001A8
:1031900030BD00002DE9F0411F46044603260168BA
:1031A000072A01F4006004DB08B116A505E016A5A6
:1031B00003E008B115A500E015A521F0100020607E
:1031C000A069C01EA0610FB1401EA0612046FEF79D
:1031D000E5FF4FB1D4E9012138469047206A401CF1
:1031E0002062C01C206206E0206AFAE7D4E90121CF
:1031F00015F8010B9047761EF8D22046FEF7E4FF43
:10320000BDE8F0814E414E006E616E00494E4600B1
:10321000696E660010B5436913B1AFF3008001E039
:10322000FFF762FE012010BD128800F124018284A4
:103230000022C2840122EDE711684FF0FF32E9E776
:103240002DE9F05F824615468B4600270AF10104FE
:10325000B9460078302801D09DB113E014F8010B75
:103260000127782803D0582801D045B10AE00DB1D4
:10327000102D07D1002714F8010B102502E00825B6
:1032800000E00A250026B0460EE005FB080005FB1D
:1032900006F101271FFA80F801EB1046B6F5803FD2
:1032A00000D3B94614F8010B294600F0D0F80028E5
:1032B000EBDABBF1000F05D00FB1641E00E05446FD
:1032C000CBF80040B9F1000F06D0FFF72BFB02212D
:1032D0000160C81EBDE8F09F48EA0640FAE700001A
:1032E0002DE9F047814616468AB0334878440DC828
:1032F0008DE80D0030487844801C03AC0DC884E88C
:103300000D0041F69B300844372190FBF1F290FB11
:10331000F1F5A5F1800501FB12041B3C02D56442C6
:10332000012000E00020DFF890A080460027FA444A
:10333000AAF1BE0A0DE0E00709D03246684607EB65
:1033400047010AEB810100F01BFB8DE807006410C8
:103350007F1C002CEFD1184F7F44AC3F18E0E807EA
:1033600014D007EB04100DF1180A90E80E008AE85B
:103370000E00C068F04201D198190890324606A9A3
:1033800003A800F0FDFA03AB83E807006D10641C8E
:10339000002DE4D132466946B8F1000F03A802D0EF
:1033A00000F0DAFA01E000F0EBFAC9E90001C9F82F
:1033B00008200AB0BDE8F0872C9C0500007B00F0D7
:1033C0008000704770B516460C460546FEF70EFEA7
:1033D000036893F80101012806D0FF2C0FD8185D6F
:1033E00068B101202C7070BDD3F807013246214628
:1033F00003F2071303442846BDE8704018474FF016
:10340000FF3070BD7546FFF77BFEAE46050069468E
:10341000534620F00700854618B020B5FCF7F4FFAE
:10342000BDE820404FF000064FF000074FF00008C5
:103430004FF0000B21F00701AC46ACE8C009ACE846
:10344000C009ACE8C009ACE8C0098D4670473A280D
:1034500000D2303820F02002412A01D3A2F13700F7
:10346000884201D34FF0FF3070470446AFF300802D
:103470002046FCF748FF5FEA400C08BF91F0000FC0
:103480004FEA8C234FEAC12243EA51514FEA1C50C4
:1034900018BF00F5F0404FEA300018BF41F000417E
:1034A0005FEA6C5C00F02980BCF1FF3F08BF40F090
:1034B00080407047130C06BF12044FF0100C4FF001
:1034C000000C130E04BF12020CF1080C130F04BF02
:1034D00012010CF1040C930F04BF92000CF1020CCA
:1034E000D30F04BF52000CF1010C11464FF0000243
:1034F000A0F11F00A0EB0C00704711F0004F08BFB7
:10350000704731F000413FF4D5AF0B0C06BF090402
:103510004FF0100C4FF0000C0B0E04BF09020CF121
:10352000080C0B0F04BF09010CF1040C8B0F04BF36
:1035300089000CF1020CCB0F04BF49000CF1010C07
:10354000CCF12003A0EB0C0022FA03F302FA0CF2F8
:1035500041EA030100F10100704720F07F4C80EA4E
:10356000030023F07F47ACEB070303F57C5300F027
:10357000004003F1FF032DE980494FEA154B09B4E0
:103580004FEA144325EA0B4E24EA03480FF20426BF
:1035900006EB132749083E785FEA320203FB066711
:1035A000C7F5000707FB06F64FEA54374FEAD64641
:1035B00006F1020607FB066CCCF1005C4FEA1C47E3
:1035C0002CEA074C07FB06F40CFB06F504EB15464A
:1035D0004FEA961634BF00204FF000404FEAD13733
:1035E00006FB07FC4FEA1C4C0CFB0BF7D21B03FB42
:1035F0000CF761EB07010CFB0EF7B0EB074072EB29
:1036000017420CFB08F734BFA2EB0742B2EB0742AC
:1036100061EB17414FEA0C444FEA910706FB07FCA8
:103620004FEA1C4C0CFB0BF7B0EBC74072EB573268
:1036300003FB0CF734BFA2EBC742B2EBC74261EB0E
:1036400057310CFB0EF7B0EBC70072EB57720CFB57
:1036500008F734BFA2EBC702B2EBC70261EB5771A8
:10366000039F4FEA816141EA921104EBCC044FEAD7
:10367000D1374FEA826206FB07FC42EA90124FEA1A
:1036800080604FEA1C4C0CFB0BF7D21B03FB0CF7C2
:1036900061EB07010CFB0EF7B0EB074072EB174232
:1036A0000CFB08F734BFA2EB0742B2EB074261EB19
:1036B00017414FEA8C554FEA910704EB9C2406FB17
:1036C00007FC4FEA1C4C0CFB0BF7B0EBC74072EB4E
:1036D000573203FB0CF734BFA2EBC742B2EBC74231
:1036E00061EB57310CFB0EF7B0EBC70072EB577272
:1036F0000CFB08F734BFA2EBC702B2EBC70261EBC9
:10370000577115EB4C254FEA816141EA92114FEA5E
:1037100082624FEAD13742EA901206FB07FC44F17D
:1037200000044FEA80604FEA1C4C0CFB0BF7D21BE5
:1037300003FB0CF761EB07010CFB0EF7B0EB074046
:1037400072EB17420CFB08F734BFA2EB0742B2EB57
:10375000074261EB174115EB1C154FEA813141EA35
:1037600092414FEA823242EA90424FEA80304FEA79
:103770000C7644F1000448EA03434EEA0B484FF04C
:10378000000EB2EB080C71EB030724BF624639460A
:103790004EEB0E0E4FF0000B0018524149414BEB1F
:1037A0000B0BB2EB080C71EB03077BF1000B24BF92
:1037B000624639464EEB0E0E4FF0000B0018524198
:1037C00049414BEB0B0BB2EB080C71EB03077BF1A0
:1037D000000B24BF624639464EEB0E0E51EA02073B
:1037E00018BF46F0010616EB0E7655F1000254F1B3
:1037F000000103D5BDE88901BDE80088BDE8890165
:10380000BDE80048B619524141EB0101A3F10103A3
:10381000704780807F7E7D7C7B7A7978777676753D
:103820007473727171706F6E6E6D6C6C6B6A6A69B5
:103830006868676666656464636362616160605F4F
:103840005F5E5E5D5D5C5C5B5B5A5A5959585857C8
:103850005756565555555454535352525251515030
:1038600050504F4F4F4E4E4D4D4D4C4C4C4B4B4B83
:103870004A4A4A49494948484847474747464646C9
:103880004545454444444443434343424242424104
:103890004141002B26D4770021D01CB54FEA3707D1
:1038A00003B44FF010004FF010014FF000000FBCB8
:1038B000BDE810400BF1010BBBF1010F08BF5FEA3F
:1038C000170722BF12F1010211F101014FF000416F
:1038D00043F1000300F0004043EA00007047F9D3D1
:1038E0005708DAE746EA064613F1400F4FEA164654
:1038F0001FDD13F1200FDFBF16430A4600212033DE
:103900005B42C8D0C3F1200746EA064602FA07F731
:103910004FEA164646EA0706C3F1200722FA03F2E9
:1039200001FA07F721FA03F14FF0000342EA070218
:10393000B1E746EA020646EA06464FEA164646EA76
:103940000106BCBF46EA0646360C4FF000034FF0B6
:1039500000024FF000019EE72DE9C048934630B4C5
:1039600091E8380007C831EA400C48BF34EA430CFC
:1039700003D5FFF7F2FDFFF78CFFF0BCBDE8008830
:103980002DE9C048934630B491E8380007C810F0DC
:10399000804F08BF13F0804F03D100F005F8FFF708
:1039A00078FFF0BCBDE8008820F07F4780EA030084
:1039B00023F07F4C07EB0C03A3F57C5300F0004091
:1039C000A3F1FE0392F0000F00F0B38095F0000F1A
:1039D00000F077802DE901494FEA11404FEA144683
:1039E00021EA004800FB06FC24EA064708FB06F62D
:1039F00007FB08F800FB07F718EB06484CEB164CE2
:103A00004FEA124B18EB07484FEA15464CEB1740AC
:103A100022EA0B4E0BFB06FC25EA06470EFB06F6D8
:103A200007FB0EFE0BFB07F71EEB064E4CEB164C8E
:103A30004FF000061EEB074E4CEB174B18EB0B0834
:103A400040F1000018EB0E0B58EB000840F10000AD
:103A50008F1A4FF000013CBFC943661B14BFB5EB82
:103A6000040C00213CBFC943F61B4FEA17444EEA41
:103A70008E0E27EA04454FEA1C4704FB07622CEA36
:103A8000074C05FB07F70CFB05F604FB0CFC16EBDB
:103A9000074642EB174216EB0C4642EB1C421BEB6F
:103AA000060658EB0202414146EA9E0601D5BDE8F2
:103AB0000189B619524141EB0101A3F10103BDE8AF
:103AC00001894FEA14454FEA114724EA054621EAE5
:103AD000074C05FB07F406FB07F70CFB06F105FB9B
:103AE0000CFC11EB074144EB17444FEA124711EB72
:103AF0000C4144EB1C4422EA074C05FB07F206FB91
:103B000007F70CFB06F605FB0CFC16EB074642EB31
:103B1000174216EB0C4642EB1C456A1854F10001A3
:103B200048BF7047B619524141EB0101A3F10103AF
:103B3000704795F0000F37D04FEA11424FEA144713
:103B400021EA024624EA074C02FB07F106FB07F7CD
:103B50000CFB06F402FB0CFC14EB074441EB174191
:103B60004FEA154714EB0C4441EB1C4125EA074C86
:103B700002FB07F506FB07F70CFB06F602FB0CFC45
:103B800016EB074645EB174516EB0C4645EB1C427A
:103B9000121951F1000148BF7047B619524141EB6B
:103BA0000101A3F1010370474FEA14454FEA1147A1
:103BB00024EA054621EA074C05FB07F106FB07F757
:103BC0000CFB06F24FF0000605FB0CFC12EB074263
:103BD00041EB174112EB0C4251EB1C4148BF7047BF
:103BE000921841EB0101A3F101037047002981689C
:103BF00002D041F0010101E021F001018160704734
:103C0000084B10B5D3F8042307490A40D0E9001443
:103C10002143D0E90240044321431143C3F8041374
:103C200010BD000000200140E030FCFFC06C80B2FD
:103C300070470246002012680A4200D001207047F7
:103C400070B504460A21052002F08AFF40F02CFDE1
:103C50009FED191B53EC112B40F076FD40F0E0FC7A
:103C60004FF47A71B0FBF1F1C9B26FF07C0211FB35
:103C700002F200EBC2026423B2FBF3F2D2B24FF4C1
:103C80007A7311FB03F302EBC20505EB021503EB9C
:103C90008505431B0A26B3FBF6F303EB830630319D
:103CA000303205EB460521703033401B6270A37043
:103CB0003030E07070BD00009A9999999999E93F68
:103CC00030B542680F4B0C791A400B6842EA042267
:103CD0001343436082680C4B4D791A40D1E903438A
:103CE00023438C6844EA4504234313438360C26A38
:103CF000097D22F47002491EC9B242EA0151C16233
:103D000030BD0000FFFEFFFCFDF7FFC070B50726C9
:103D100009290AD9C568A1F10A0404EB4404A640A4
:103D2000B543A3401D43C56007E0056901EB4104AD
:103D3000A640B543A3401D4305611F23072A09D2AE
:103D4000446B521E02EB820293409C4391400C4311
:103D5000446370BD0D2A09D2046BD21F02EB8202AC
:103D600093409C4391400C43046370BDC46A0D3A78
:103D700002EB820293409C4391400C43C46270BDAD
:103D8000816841F080418160704700000649002849
:103D9000D1F8040302D040F4000001E020F4000058
:103DA000C1F80403704700000020014010B5FF2057
:103DB00000F037F855280AD05521FF2000F077F899
:103DC000FF2000F02EF8552801D0012010BD002062
:103DD00010BD03F029B870B515460E46044608E03C
:103DE0002046641CA4B200F01CF86D1E06F8010BFE
:103DF000ADB2002DF4D170BD2DE9F0410D46014664
:103E0000002004464E1908E00702301B401E80B215
:103E100000F007F8641C3844E4B2AC42F4D3BDE8C7
:103E2000F08110B5044603F0A5F8200AA02101EBAB
:103E30004000C0B203F06EF803F0DEF8E0B203F029
:103E400069F803F0D9F803F095F8A12003F062F8BF
:103E500003F0D2F8002003F029F8044603F0AAF892
:103E6000204610BD70B514460D46064606E029787A
:103E7000304600F01CF8761CB6B26D1C641EA4B26D
:103E8000F5D270BD2DE9F04116460D4607460024D7
:103E900009E0E00025FA00F0C1B2381980B200F064
:103EA00006F8641CE4B2B442F3D3BDE8F08170B507
:103EB0000D46044603F05EF8200AA02101EB400005
:103EC000C0B203F027F803F097F8E0B203F022F84D
:103ED00003F092F8284603F01DF803F08DF803F084
:103EE00069F8BDE8704042F2107019F095BB00000F
:103EF00010B501218C028AB0204609F08FFF012104
:103F0000204609F097FF0021204609F093FF002486
:103F100006944FF480300994CDE9070406A8FFF712
:103F20006FFE8DF8044000948DF8054002940494CF
:103F30000120064C8DF8140069462046FFF7C0FEAC
:103F400001212046FFF752FE0AB010BD00220140B9
:103F500030B501218DB0084609F024FF01210C0283
:103F6000204609F05BFF20210A9103218DF82C10D7
:103F700002218DF82F100AA91D4802F0A5FB01218E
:103F8000204609F057FF0021204609F053FF194D44
:103F900000246C60AC600120FFF7F8FE06944FF43B
:103FA00080300994CDE9070406A8FFF729FE0094A4
:103FB00001208DF804408DF814008DF8054002941E
:103FC000049469462846FFF77BFE0723012205215A
:103FD0002846FFF79BFE0723012210212846FFF702
:103FE00095FE01212846FFF701FE0DB030BD00000F
:103FF0000000024000200140FEF7E3BA2DE9F0473F
:10400000174688460A461D460024394624A002F079
:1040100011FA254E401C22D00020C6F8A0024FF015
:10402000010A814619E057F824001DA1FEF732FC71
:1040300088B955F824001DA1FEF72CFC30B155F8C5
:1040400024001CA1FEF726FC10B104E0504600E05D
:104050004846C6F8A002641CE4B24445E3DBD6F847
:10406000A80210B9D6F8A00218B1D6F8A80218B163
:1040700006E012A0BDE8F087D6F8A002012804D01F
:10408000D6F8A802012802D005E014A0F2E7D6F87D
:10409000A002012801D018A0ECE71FA0EAE7000069
:1040A00042454550000000000080424242454550D4
:1040B0004F4E0000424545504F4646002F53544D49
:1040C00033325F4C45445F4F4E5F424545505F4F32
:1040D00046462E7368746D6C000000002F53544DDB
:1040E00033325F4C45445F4F4E5F424545505F4F12
:1040F0004E2E7368746D6C002F53544D33325F4CE9
:1041000045445F4F46465F424545505F4F46462E09
:104110007368746D6C0000002F53544D33325F4C44
:1041200045445F4F46465F424545505F4F4E2E73B4
:1041300068746D6C000000007CB50121202009F03E
:1041400031FE01208DF8040000208DF806000320C8
:104150008DF805000220074D4FF480748DF807009C
:1041600000946946284602F0AFFA2146284602F03C
:10417000F7FA7CBD0014024070B50F4C0025C4F85E
:1041800080520E48016821F440010160016841F449
:1041900080010160022004F5207419F03DFA0848FE
:1041A000C0F8AC52022019F037FA0120206002203A
:1041B00019F032FA256070BD0080404200140240C0
:1041C000008042421CB50121222009F0EBFD0124B0
:1041D0008DF8044000208DF8060000948DF807400B
:1041E0006946064802F070FAE00200908DF804403B
:1041F0006946034802F068FA1CBD00000004024052
:104200000014024070B50F4C0026C4F880620E48BE
:10421000016821F440010160016841F480010160FE
:10422000022004F5207419F0F7F908480125C0F8B8
:10423000AC52022019F0F0F92560022019F0ECF9D7
:10424000266070BD0080404200140240008042425F
:104250002DE9F047824617480024016821F4400107
:104260000160016801601E2019F0D6F90025124E88
:10427000DFF848902F464FF00108C6F88072022000
:1042800019F0CAF9C6F880826006040ED9F82C022B
:1042900008B1641CE4B26D1CEDB2082DEDD3BAF187
:1042A000000F04D0FFF768FF2046BDE8F087FFF756
:1042B000A9FFF9E70014024000804042008042421A
:1042C0002DE9F04705461548016821F440010160D9
:1042D000016841F480010160114E0027C6F8807228
:1042E000022019F099F9DFF83C8000244FF0010911
:1042F000E909C8F8AC126806050EC6F880920220DB
:1043000019F08AF9C6F88072022019F085F9641C48
:10431000E4B2082CECD3BDE8F087000000140240A2
:10432000008040420080424270B50F48016821F48D
:1043300040010160016841F4800101600B4E0120E1
:10434000C6F8AC020A4DC5F880021E2005F520759E
:1043500006F52B7619F060F900243460022019F07C
:104360005BF92C6070BD00000014024000804242E6
:104370000080404270B50D48016821F440010160A1
:10438000016841F48001016009480125C0F88052AC
:104390001E2019F041F9074C0020C4F8AC0202209D
:1043A00004F52B7419F038F9256070BD0014024033
:1043B000008040420080424270B5114800240168EC
:1043C00021F440010160016801600E4D0120C5F833
:1043D000AC020D4EC6F8800207E0641CE4B2FA2C71
:1043E00003D9FFF7C7FF012070BD022019F014F9AF
:1043F000D5F82C020028F0D1C6F8800270BD00006C
:1044000000140240008042420080404270B5002506
:104410004FF4803405E080200AF082FE08B144B1F8
:1044200001E0641EF7D240F2FF500AF051FE284628
:1044300070BD032070BD000010B50446134801682C
:1044400011F0450FFBD004200AF06AFE20B10420D1
:104450000AF03EFE032010BD01200AF061FE20B1EB
:1044600001200AF035FE012010BD084824380068FC
:10447000A04201D0102010BD40F2FF500AF028FEEB
:1044800002482038006800F0080010BD342C0140BC
:1044900010B500244FF480310E4809E0026812F094
:1044A000450F05D009B1500705D5032404200CE0C1
:1044B000491EF3D2F7E701200AF032FE18B10124B9
:1044C00020460AF005FE40F2FF500AF001FE2046A9
:1044D00010BD0000342C014010B50A49086810F0E6
:1044E000450FFBD004200AF01BFE20B104200AF087
:1044F000EFFD032010BD40F2FF500AF0E9FD00205F
:1045000010BD0000342C014070B506461C480D4615
:104510000024026812F0450FFBD004200AF000FED0
:1045200020B104200AF0D4FD032070BD01200AF060
:10453000F7FD20B101200AF0CBFD012070BD10482D
:1045400024380068B04212D140F2FF500AF0C0FD9A
:104550000B482038026812F4604F03D0900404D551
:10456000132070BD100C288007E0500401D51020E6
:1045700070BD100401D50F2070BD204670BD000035
:10458000342C014010B500244FF480320B4809E070
:10459000016811F0450F05D00AB1480705D503247D
:1045A000042006E0521EF3D2F7E7480603D50024A4
:1045B00040200AF08DFD204610BD0000342C014043
:1045C00070B5084D0024202128460DF003FF30B1BE
:1045D00028460DF075FF0449C4B20020087020463B
:1045E00070BD0000001001406C08002070B50E483E
:1045F000446801E0D4F8804014B160780128F9D112
:10460000FFF7DEFF05000BD034B90D2D08D10120D6
:1046100000F00CF8040005D0294620460CF0C0F943
:10462000002070BD012070BD6C08002000B503465D
:1046300007F006FE020010D0194602F007FD0749F8
:10464000486810B94A6007E00846D0F88010002991
:10465000FAD1C0F88020D067104600BD6C08002059
:104660000069416841F002014160032010F026BC5E
:1046700010B50B460C0601F07F0202EB820100EB45
:10468000C10102D501F58E7101E001F55D710A707D
:10469000DA094A7010F060FE002010BD0A4610B51D
:1046A000090602F07F0306D503EB830100EBC1018D
:1046B00001F58E7105E002EB820100EBC10101F50D
:1046C0005D7100248C700B70D2094A7010F02BFEC3
:1046D000002010BD10B50A0604D501F07F0110F0CE
:1046E00071FF01E010F050FF002010BD70B50D46C5
:1046F0000E0601F07F0404EB840100EBC10102D53A
:1047000001F58E7101E001F55D71ED090C704D70E0
:104710008A60CB7000D0CC80022B01D100220A71BC
:1047200010F0D8FD002070BD10B501F07F0404EB3F
:10473000840100EBC101C1F88833C1F88023002354
:10474000C1F88C3381F8753381F87443C37801F56F
:104750005D71012B00D10A6114F0FF0F03D010F03E
:104760002DFE002010BD10F046FDFAE70069002282
:1047700061F30A1201681143016070470A4610B5DF
:10478000090602F07F0306D503EB830100EBC101AC
:1047900001F58E7105E002EB820100EBC10101F52C
:1047A0005D7101248C700B70D2094A7010F0EEFD1F
:1047B000002010BD70B511F07F0404EB840100EB04
:1047C000C1014FF0010581F81D5181F81C41C1F86C
:1047D0002821C1F82C2101F58E714FF00002C1E9AA
:1047E000053203D010F0EAFD002070BD10F003FD8B
:1047F000FAE700002DE9F0410646002411F067F8C1
:10480000074655E0F80751D03069E1B20369426BC1
:10481000CA4006EB810102F00102896943EAC21233
:104820008D681540E9071AD00125426B05FA04F19D
:104830008A43426306EB8400806985601F48E1B2C9
:104840000068426830469047F078012807D134B9B3
:1048500096F81101042802D1304610F029FD2807EE
:1048600004D506EB8400082580698560E80604D538
:1048700006EB8400102580698560680604D506EB88
:104880008400402580698560A80704D506EB840074
:10489000022580698560280608D52146304600F04B
:1048A00066F906EB84018020896988607F08641CB2
:1048B000002FA7D10120BDE8F08100001C060020D8
:1048C0002DE9F0410546002411F007F80746DFF80E
:1048D000988043E0F8073FD0E1B2284611F003F892
:1048E0000646C00725D005EB84000126416D8E6089
:1048F000E97801290CD1406D016904EB840005EBD6
:10490000C000C1F31201D0F87C23511AC0F88C13F7
:10491000D8F80000E1B2026828469047E8780128FC
:1049200007D134B995F81101052802D1284610F0B5
:10493000BFFCB00704D505EB84000226406D8660FD
:10494000300709D5D8F8000081682846884705EB6C
:1049500084010820496D88607F08641C002FB9D14C
:104960000120BDE8F08100001C06002070B505465E
:10497000C068816921F010018161E868066A06F06B
:104980000F0000EB800005EBC004C6F3434004F5C4
:104990005D74072821D2DFE800F0202004202020C9
:1049A000150047F6F070064217D0C6F30A163246D5
:1049B0002846E16810F0A8FFE0683044E060A06994
:1049C000304409E0082205F2CC51284610F09CFF43
:1049D000A069C6F30A110844A061E868816941F042
:1049E00010018161012070BD38B5044600208DF8AA
:1049F000000094F812018DF8000015480068416924
:104A00002046884720698068E2684FF40061516160
:104A1000A17AD1B1C00718D094F81501012814D19A
:104A20009DF80000032810D1D4F80C01016841F072
:104A300001010160D4F80C01016841F0030101603B
:104A40000448016841F006010160012038BD000002
:104A50001C06002010ED00E070B50446006900253A
:104A60000126416821F0010141602946204610F0ED
:104A7000A9FD0020FF2206E004EB80018B699A600B
:104A8000496D8A60401C61788142F5D821694FF0F8
:104A9000FF3088612846216966F30F0066F31F40E6
:104AA000C861216945F00B004861216945F00B00A0
:104AB00008612069016821F4FE610160204610F060
:104AC000F7FBE1684FF480504861034800680169D2
:104AD00020468847012070BD1C06002070B50446A2
:104AE00010F038FF0120002384F8120184F81431FB
:104AF0001A46402510E002EB820104EBC10181F867
:104B00001D0181F81C21A1F8222181F81F31C1E982
:104B10004953521CC1F8303161789142EBD80020E2
:104B200010E000EB800104EBC10181F8753381F8DE
:104B30007403A1F87A0381F87733C1E9DF53401C8D
:104B4000C1F8883361788142EBD8204610F010FB21
:104B5000204610F0B8F90021204610F05BFF2046F7
:104B600010F0F1F92046BDE8704010F0E8BC2DE9E6
:104B7000F0470E4601EB860100EBC1048146D4E903
:104B80004C01401AD4F8241104F58E74814200D2ED
:104B90000846C01C870809EB860812E0451AA06881
:104BA000A84200D20546E81C8708ABB2F2B24846DC
:104BB000E16811F073FEE0682844E060A0692844D1
:104BC000A061D8F81800806980B2B84205D9D4E94C
:104BD0000501814201D20028E0D10120BDE8F08723
:104BE00005490028086802D040F0010001E020F0EB
:104BF000010008607047000000000550014948614D
:104C0000704700000000055005490028086802D0E0
:104C100040F4804001E020F48040086070470000CC
:104C2000000005502DE9F04391B088460746012168
:104C30001D4616468805DDF8609009F0B3F8244C4F
:104C4000204600F04DF9204600F0F0F90028FAD196
:104C50004FF0007000901F48CDE901070027CDE913
:104C600003764FF48050CDE907050011099040020A
:104C70000A9004200B90CDE905790320CDE90C07BB
:104C8000694620460E9700F033FAB8F1000F1BD0AA
:104C90000121204600F0B6F94FF40022414620469B
:104CA00000F050FA01221021204600F00BFA3920C2
:104CB0008DF83C008DF83D708DF83E7001208DF828
:104CC0003F000FA807F080FA11B0BDE8F0830000A4
:104CD0002864024028000550054800210160C16099
:104CE0001F2242618161C16101624162704700001F
:104CF000000005500349024600200969114200D016
:104D0000012070470000055010B507F041FB01205D
:104D1000FFF7F0FF012804D126F0A2FC0120FFF7E5
:104D20006DFFBDE8104007F03FBB0000054A0029B9
:104D3000D16801D0014302E0C04380B20140D1609C
:104D4000704700000000055030B50D490A6844F274
:104D500001039A430A600A6840F6F2739A43038893
:104D60004488C588234384882C43234304892343F0
:104D7000448980892343034313430B6030BD000003
:104D80000000055010B50021084606F089FB06F02A
:104D9000B1FD0121034800F099F8BDE81040012061
:104DA000FFF71EBF2864024010B50020FFF718FF70
:104DB00004480168C907FCD1BDE81040024800F072
:104DC00085B80000000005502864024070B507F067
:104DD000DFFA094C094D2146284600F049F901281F
:104DE00006D12146284600F05BF805484068804718
:104DF000BDE8704007F0D8BA008000185860024043
:104E00007800002070B507F0C3FA094C094D21461F
:104E1000284600F02DF9012806D12146284600F049
:104E20003FF8054800688047BDE8704007F0BCBA0D
:104E300020800020706002407800002070B507F0EC
:104E4000A7FA094C094D2146284600F0F7F8012839
:104E500006D12146284600F00DF805480068804735
:104E6000BDE8704007F0A0BA0008001028640240B6
:104E700024000020074A904201D2074801E005487B
:104E80001038064A8B0001EA020101D5C160704763
:104E90008160704710640240006002407D0F7D0F0A
:104EA000074A904201D2074801E005481038064AF7
:104EB0008B0001EA020101D5C16070478160704733
:104EC00010640240006002407D0F7D0F00290168E0
:104ED00002D041F0010101E021F0010101607047C1
:104EE0002DE9F043016821F001010160002101601A
:104EF00041608160C1600161212141613C493C4ABE
:104F00003D251039904202D18D60BDE8F083384ACA
:104F10004FF474661832904201D18E60F5E7344A3E
:104F20004FF474173032904201D18F60EDE7304A70
:104F30004FF0746C4832904202D1C1F808C0E4E7E7
:104F40002B4B2C4A6033984201D1CA60DDE7284CD4
:104F5000294B7834A04201D1CB60D6E7DFF89080AE
:104F6000264C08F19008404501D1CC60CDE7DFF830
:104F700080804FF03D5908F1A808404502D1C1F8A2
:104F80000C90C2E71E49DFF878800839404501D10E
:104F90000D60BAE71A4D1835A84201D10E60B4E78A
:104FA000174D3035A84201D10F60AEE7144D48359A
:104FB000A84202D1C1F800C0A7E7114D10496035E1
:104FC000091FA84201D10A609FE70D4A783290423A
:104FD00001D10B6099E70A4A9032904201D10C60EE
:104FE00093E7074AA83290428FD1C1F800908CE72E
:104FF000106002403D000020400F002000003D20D6
:10500000106402400029016802D041F4802101E0CF
:1050100021F48021016070470029016802D041F02D
:10502000200101E021F020010160704701460020CD
:105030000968C90700D00120704700000246094BEB
:1050400000209A4201D2084A01E0064A103A8B0039
:1050500001D5526800E01268044B1A400A4200D0A1
:105060000120704710640240006002407D0F7D0FF8
:1050700030B5104A0024904201D20F4A01E00D4A97
:10508000103A0E4B194205D01E2303EAD1250368BE
:105090002B4002E0406900F08003880001D5506891
:1050A00000E01068064A1040084201D003B1012414
:1050B000204630BD10640240006002403C0F3C0FAF
:1050C0007D0F7D0F0B0607D5436912B143F08003B6
:1050D00001E023F080034361802908D0002A0268A0
:1050E00001F01E0101D00A4300E08A4302607047CC
:1050F00030B50368124ACC6813400A682243D1E9EC
:1051000005452C432243CC6922430C6A22434C6A56
:1051100022438C6A22434C6B22438C6B22431A43FA
:105120000260426922F00703D1E90B2422431A43AB
:1051300042610A6942604A6882608968C16030BD24
:105140003F801CF00AB101617047C1607047416047
:105150007047000070B515480024016821F4402113
:10516000016001680160124D04E0641CE4B201209A
:1051700018F052FAD5F8240210B1C82CF5D30DE07E
:10518000C82C0BD2002404E0641CE4B2012018F007
:1051900043FAD5F8240218B1F02C04D3012070BDD5
:1051A000F02CF1D3FAE7002070BD00000018024097
:1051B0000000434270B500F0ABF800F089F8FFF74B
:1051C000C9FFCC2000F0B2F8BE2000F0AFF800F02C
:1051D0006FF8044600F06CF8072805D9C043E14396
:1051E000C0B2CCB2002500E0012504EB002000B2E3
:1051F0003FF043FA9FED061B53EC112B3FF0A4FA4E
:105200003FF0DEF900B2002D01D1404200B270BD86
:10521000000000000000E43F1CB50121402008F020
:10522000C1FD4FF40070009001208DF804000021B2
:105230008DF8061002218DF805108DF807006946DB
:10524000034801F041FA00F043F8FFF783FF1CBD6B
:105250000018024070B5144C206820F440202060F3
:10526000206840F480202060104D0020C5F8A40282
:10527000022005F5297518F0CFF901202860206873
:1052800020F440202060206820600C2018F0C4F931
:1052900055F8800C08B1012400E00024322018F0F9
:1052A000BBF9204670BD00000018024000004342D8
:1052B00070B500250124FFF7CDFFC001641C40EA52
:1052C0005500E4B2C5B2082CF5D9284670BD0000DF
:1052D0000D4810B5016821F440210160016841F4D6
:1052E00080210160094C0020C4F8A40240F2EE20A5
:1052F00004F5297418F090F901202060BDE81040F1
:105300000F2018F089B90000001802400000434245
:1053100010B5FFF7DDFFFFF71DFFCC2000F006F80A
:10532000BDE81040442000F001B800002DE9F04134
:1053300005461448016821F440210160016841F4E8
:10534000802101600124104E0027A04615F0010FB6
:105350004FEA5505C6F8A47206D0022018F05CF991
:10536000C6F8A4823C2005E03C2018F055F9C6F8A8
:10537000A482022018F050F9641CE4B2082CE5D98C
:10538000BDE8F08100180240000043420149486135
:105390007047000000900240044A0029D16901D002
:1053A000014300E08143D16170470000009002405A
:1053B00005490028886902D040F0020001E020F091
:1053C000020088617047000000900240F0B5124F63
:1053D00000234FF0004C44F2F45E561E786013E058
:1053E00000EB4314C4F800C0C3EBC31505EB45053F
:1053F00001EB8505C4E901E5B34203D204F12005C0
:10540000E56000E0E0605B1C9342E9D30349C860BB
:105410000348B860F0BD0000580100200090024031
:10542000FC2E002005490028886902D040F4005075
:1054300001E020F4005088617047000000900240B5
:10544000F0B50F4C00234FF48017561E206011E07A
:1054500000EB43142760C3EBC31505EB450501EBD7
:105460008505A560B34203D204F12005E56000E0A4
:10547000E0605B1C9342EBD302490861F0BD000081
:10548000580100200090024010B5064C206840F002
:1054900000702060642000F007F8206820F00070A1
:1054A000206010BD1038024001B581B00198009015
:1054B000002801D0401EFAE70CBD000002488169B7
:1054C00041F48011816170470090024001480068FA
:1054D000806870475801002002680021002A08DB1C
:1054E0000268120405D40268D20502D50068C0F330
:1054F0000D41084670470000034900200968C907AC
:1055000000D00120704700000090024010B506F066
:105510003FFF0A4C01E027F0F3F82068FFF7DCFFBB
:105520000028F8D14020FFF731FF4FF48030FFF71B
:105530002DFFBDE8104006F037BF00005C010020E1
:105540002DE9FC4100267F4D04460096019628690E
:1055500088467D4AD4F8BC107D4B51437B4A20F0ED
:105560001C000A449A4202D240F0080016E0794A30
:10557000794B0A449A4202D240F00C000EE0774A7E
:10558000774B0A449A4209D3764A1144764A9142AB
:1055900002D240F0040001E040F0100028614FF416
:1055A00000420021404600F06FFA00282DD06F48DD
:1055B000FFF77AFF2068A8B36D4F01980121401CC6
:1055C0000190404600F088F9400702D40198B842A3
:1055D000F3D30198B84217D04FF4805200214046CF
:1055E000019600F051FA00280FD001980121401CCB
:1055F0000190404600F070F9800602D40198B8424C
:10560000F3D30198B84202D10020BDE8FC811F21EC
:105610004046019600F060F9C10604D54FF40061E0
:10562000216201E008E02662400701D5666113E0CF
:105630004FF4804060610FE0206A6169C00840EA71
:10564000510082B20021404600F01EFA0028DCD052
:105650006FF07F40FFF728FF296846480140D4E9F2
:1056600001021043E26854F8103F1A431043626885
:105670001043A2681043E268104322691043626934
:105680001043A2691043E2691043226A1043626A20
:10569000104308432860F4E90A010843D4E90212E0
:1056A000114308432169084361690843A16908431C
:1056B000E16908436860206AA860606AE860A969D7
:1056C0004FF641700140D4E90B021043238D626B09
:1056D00042EA03421043A26B1043E26B10430843BB
:1056E000A861D4E910010843E8612348826923498D
:1056F0000A40D4E912131943D4E914352B43194352
:10570000A36D1943E36D1943236E1943636E194367
:10571000A36E194311438161D4E91B121143626FD7
:1057200054F8783F1A431143626841EA8201A26843
:10573000114341F400010160016841F08001016002
:10574000012062E70080024040420F0000D3CEFEFD
:10575000C0E1E40040F1E9FD40787D0100796CFC96
:10576000005A6202001F0AFA80F0FA02FFFF0F00DF
:10577000FFFF04000F8120FF00900240233FDEF86E
:10578000054B8A88184402640A78D1F8011042EA6D
:1057900001214164704700000080024010B5B0B0A4
:1057A00001214FF0606008F0FDFAFFF76DFE00F098
:1057B000EBF8FFF7A1FE0128FBD0684600F0FDF8EA
:1057C0000120009000204FF40071CDE90A10090477
:1057D00007901190CDE920010E90149013900A11BA
:1057E00015902590269023920420CDE9280180036E
:1057F0002A9080012B9040122C9040002E90A820DF
:105800002F9000216846FFF79BFEC4B2012C03D104
:1058100001210348FFF7C0FD30B0204610BD000055
:105820004000010005490028086802D040F004004B
:1058300001E020F004000860704700000080024092
:1058400005490028086802D040F0080001E020F077
:1058500008000860704700000080024010B5094C45
:105860000020216829F00AFE0020616829F006FE68
:105870000020A16829F002FEE168BDE81040002088
:1058800029F0FCBD4801002070B5A021002029F0BE
:105890000DFE104CA0212060002029F007FE41F6EB
:1058A000C45560602946002029F000FEA06029460A
:1058B000002029F0FBFDE060216831B1616821B171
:1058C000A16811B108B1002070BDFFF7C7FF01202A
:1058D00070BD00004801002018B500220092124A55
:1058E00013694FF6FF7403F01C0304EAC020184349
:1058F0004FF4F86303EA8111014321F0020040F004
:105900000100106109490098401C00901069C0070F
:1059100002D000988842F6D30098884201D1002036
:1059200018BD506980B218BD00800240FFFF04001E
:1059300070B5134C00231A4621680D68002D0BDA50
:10594000104916464B691B0602D580234B618E60B9
:1059500002604260826070BD0D682D040AD40D683B
:10596000ED0507D50D68AD0504D50A68C2F30D43F2
:105970008A681B1FCD6825600360C0E9012170BDE6
:105980005C010020009002400248016841F00101E2
:10599000016070470090024000B50120FFF750FF02
:1059A000FFF78CFD0120FFF73DFF0120FFF73AFDD7
:1059B00001205DF804EBFFF7FBBC01210160002131
:1059C000416081604FF48042C160C0E90412D2108E
:1059D0008161C0E9071241628162C1620163416372
:1059E00040228163C0E90F122022C0E91121C16465
:1059F0000165416581658022C165C0E91812816633
:105A0000C16601674167D2048167C0E91F12521065
:105A1000C0E921211311C0E92331C0F89410C0F866
:105A20009810C0F89C10C0E928125212C0F8A820A3
:105A30009201C0F8AC205212C0E92C21C0F8B81075
:105A4000704700000E4A11680B68002B01DA002035
:105A50007047C0F30C004860086840F04050086090
:105A6000086840F000400860064843695B0703D5BA
:105A70000423436100234360C8681060012070471D
:105A8000580100200090024038B500230093114BCC
:105A90001C694FF6FF7504F01C0405EAC020204382
:105AA0004FF4F86404EA8111014341F003005A61A4
:105AB000186109490098401C00901869C00702D07D
:105AC00000988842F6D30098884201D1002038BD62
:105AD000012038BD00800240FFFF0400014908603A
